:020000040800F2
:10000000A0D500204501000871530008B51E000866
:1000100041510008030B0008E190000800000000B7
:10002000000000000000000000000000CD8100087A
:100030006D15000800000000C9010008798500085E
:100040005F0100085F0100085F0100084D770008AC
:100050005F0100085F010008711500085F010008DA
:100060005F0100085F0100085F0100085F010008F0
:100070005F0100085F0100085F0100085F010008E0
:100080005F0100085F0100085F0100085F010008D0
:100090005F0100085F0100085F0100085F010008C0
:1000A0005F0100085F0100085F0100085F010008B0
:1000B0001D8600085F0100085F0100085F0100085D
:1000C0005F0100085F0100085F0100085F01000890
:1000D0005F0100085F0100085F0100085F01000880
:1000E0005F0100085F0100085F0100085F01000870
:1000F0005F0100085F0100085F0100085F01000860
:100100005F0100085F0100085F0100085F0100084F
:100110005F0100085F010008918600085F01000888
:100120005F0100085F0100085F0100085F0100082F
:10013000DFF80CD000F0E0FA0048004759E1000871
:10014000A0D500200648804706480047FEE7FEE7A6
:10015000FEE7FEE7FEE7FEE7FEE7FEE7FEE7FEE777
:10016000BD8500083101000872B6704762B670475D
:1001700030BF704720BF704790FAA0F07047EFF390
:10018000108072B6704780F3108870471F484FF098
:10019000FF010170002080F309881D48016881F388
:1001A00008881C48012101701B484FF080510160F4
:1001B00062B6FEE718484FF080510160704716485C
:1001C0004FF080510160704772B6EFF3098028B19B
:1001D000203880E8F00F11490968086000B5104820
:1001E00080475DF804EB0F480F490A7802700B480E
:1001F0000E490A680260106890E8F00F203080F322
:1002000009884EF0040E62B67047000022ED00E04F
:100210001C010020E200002004ED00E0E8000020C6
:1002200095630008D7000020D8000020F0000020CF
:1002300038B5D0E90221491E01EB410102EBC101B1
:100240004268C1EB011102EB81010268C1EB0111AF
:1002500002EB8103D0E9042101EB410102EB8101B2
:100260003024A1F5527191FBF4F2154D04FB1211EB
:10027000554303EBC51300931A2902DB114A1A44B4
:1002800000920C2391FBF3F20F4C009D544303FBAF
:10029000121105EBC4140D4B009408E0491E40F206
:1002A000A3245A5C6243009C04EBC2120092002912
:1002B000F4DC0146684600F09DF9009838BD000066
:1002C0003F0C0F008051010067C203006D59010807
:1002D00040EA01039B0703D009E008C9121F08C0C8
:1002E000042AFAD203E011F8013B00F8013B521E48
:1002F000F9D27047D2B201E000F8012B491EFBD2BF
:1003000070470022F6E710B513460A460446194620
:10031000FFF7F0FF204610BD421C10F8011B00291A
:10032000FBD1801A704730B504460020034600E038
:100330005B1C934203D2E05CCD5C401BF8D030BD27
:1003400010B5484304460DF0B3FF002805D0002146
:10035000002C02D0641E0155FAE710BD0FB400B5A1
:100360008DB010A909900B9000914FF0FF300A90CA
:1003700000200C9005480690054807906A4609A899
:100380000F9900F08BF90DB05DF814FBB906000869
:10039000D70600082DE9FF5F1D464FF0FF3BD5E96A
:1003A000014691465F464FF00008A9697F1C0198FD
:1003B0008847296A824688470028F6D1BAF1FF3F6C
:1003C0000CD024F4C064002E19DD600614D5BAF1F7
:1003D0002B0F09D0BAF12D0F0ED103E0584604B00F
:1003E000BDE8F09F44F48064A9697F1C01988847A8
:1003F000761E8246002E02DDBAF1300F03D0B9F12D
:10040000000F26D032E0A969761E44F400747F1CE8
:10041000019888478246002E05DDBAF1780F06D094
:10042000BAF1580F03D0B9F1000F10D01EE0B9F1A6
:10043000000F02D0B9F1100F18D1A969761E24F46B
:1004400000747F1C019888478246102002E0082033
:1004500000E00A20814609E008FB0908A969761E28
:1004600044F400747F1C019888478246002E05DD05
:100470004946504600F0FEF80028EDDAE969019897
:100480008847A00502D46FF00100A8E7E00725D156
:10049000600613D5600502D5C8F1000000E04046B3
:1004A00029680A1D2A600968220501D5087015E02F
:1004B000220701D5088011E008600FE02868011DBF
:1004C00029600068210502D580F8008006E0210738
:1004D00002D5A0F8008001E0C0F8008038467EE731
:1004E0002DE9FF5FD2E901A74FF000089169994615
:1004F0001446DDF838B0464601988847054659EA63
:100500000B0005D009E0A169761C019888470546D3
:10051000216A284688470028F5D1681C03D05FEA85
:10052000CA7005D015E04FF0FF3004B0BDE8F09F71
:100530002068011D2160D0F800800AE05FEACA70DF
:1005400001D108F8015BA169761C7F1E01988847DC
:100550000546002F1ADD681C18D0B9F1000F0DD028
:10056000E81705EBD060421120F01F0059F8221067
:100570002A1A012090400142E0D107E0BBF1000FB0
:10058000DCD1216A284688470028D7D0E169019844
:1005900088470AF0010050EA0B0002D1002188F8D8
:1005A0000010A068B84203DDBBF1000F03D017B103
:1005B0006FF00100B9E73046B7E730B50B460146AA
:1005C00000202022012409E021FA02F59D4205D3F2
:1005D00003FA02F5491B04FA02F52844151EA2F19C
:1005E0000102F1DC30BD0000014900F003B8000059
:1005F00074CD002030B503683C22B3FBF2F002FB5F
:1006000010330B60B0FBF2F302FB130018244860B8
:10061000B3FBF4F004FB10328A60021D0723B2FB27
:10062000F3F403FB14228A61820040F2B55502F60E
:100630006C32B2FBF5F404F144000346486105FB5B
:1006400014208008C8613B2802D39A0700D0401CC0
:100650000022074C13460A61E25C824203D8801AEA
:100660005B1C0B61F8E7401CC860084630BD000009
:10067000795901083A2800D2303820F02002412A66
:1006800001D3A2F13700884201D34FF0FF30704709
:10069000026811441378016018467047D16004491C
:1006A00051610449116200211161114600F03CB80A
:1006B000910600081D070008426842B1016811F860
:1006C000013B23B1521EC0E90012184670470121B8
:1006D000C160881E704742685AB1C368016843B957
:1006E00083688B4205D0491E521CC0E900120020CD
:1006F00070474FF0FF307047064C074D06E0E0684A
:1007000040F0010394E8070098471034AC42F6D358
:10071000FFF712FD805A0108A05A0108C0B24FF439
:10072000F05100F095B900002DE9F34F8BB04FF078
:10073000000801F10C000C464FF0010B46460DF18C
:10074000080A0190626901210198904705002DD0A7
:10075000252D2CD0216A8847C0B1626901210198FA
:100760009047216A88470028F7D1411E62690198A5
:10077000904700E0761CA1690B988847216A88475A
:100780000028F7D1E1690B988847DBE7A1690B984E
:1007900088470746A84201D1761CD3E7E1690B9848
:1007A00088477F1C02D1B8F1000F6FD043E10027CA
:1007B00062693D463946019890472A2804D162690A
:1007C0000121019890470125DFF88092626901219B
:1007D00001989047A0F130010A290AD24F45E5DC83
:1007E00007EB870100EB4107303FDFD445F01005F0
:1007F000ECE7E90601D46FF000476C280AD04C28DA
:1008000014D0682815D06A280DD074281CD07A28F6
:100810001AD01DE062690121019890476C2802D02E
:1008200045F0040514E045F002050DE045F0200513
:100830000AE06269012101989047682802D045F0DA
:10084000080505E045F400656269012101989047BB
:10085000C4E9015765283DD019DC582877D00CDC55
:10086000452837D004DC252826D0412831D131E075
:1008700046282FD047282CD12CE05B287DD061283A
:1008800028D0632879D0642823D157E0CDE06F28A1
:1008900045D008DC66281DD067281BD0692821D0E8
:1008A0006E2816D127E0702842D0732865D07528AD
:1008B00044D078280DD14AE0A1690B9888470546B5
:1008C00025283FF469AFE1690B9888476D1C3FF418
:1008D0006AAFB0E023466A466FF001000B99AFF3B0
:1008E00000809BE045F040006060A80723464FF081
:1008F000000233D43BE02068011D21600068290517
:1009000001D506701EE7290701D506801AE7A90759
:1009100003D5F117C0E9006114E7066012E745F05E
:1009200040006060A80723464FF0080216D41EE07E
:1009300040F60E0125EA0100606016E045F0400037
:100940006060A80723464FF00A0207D40FE045F085
:1009500040006060A80708D5234610226FF0010010
:100960000B99AFF3008059E007E0234610226FF0A7
:1009700001000B99FFF70EFD50E04FF000094F46C4
:100980004B46632802D05B2806D040E0E80601D43D
:100990000120A06001273AE0626901210198904797
:1009A0005E2805D14FF001096269494601989047D8
:1009B000216939B900210B46524642F82130491CC1
:1009C0000829FADBB0B3216969B9C11700EBD1611D
:1009D0004B110AEB830221F01F01411A0120136819
:1009E00088400343136062690121019890475D28A4
:1009F000E8D1B9F1000F09D00020514651F820206C
:100A0000D24341F82020401C0828F7DB02AB2246E5
:100A100000976FF001000B99FFF762FD00280CDAD8
:100A2000401C08D1BBF1000F05D04FF0FF300DB0D6
:100A3000BDE8F08FFFE74046F9E7E90701D108F18B
:100A4000010806444FF0000B7CE60000CCCCCC0C37
:100A50007F2801D9002208E0064A02EB5002C007B5
:100A6000127800D1120902F00F02012090400840D4
:100A7000704700008559010870B58C1810F8015BAB
:100A800015F0070301D110F8013B2A1106D110F827
:100A9000012B03E010F8016B01F8016B5B1EF9D12B
:100AA0002B0705D40023521E0DD401F8013BFAE7B1
:100AB00010F8013BCB1A921C03E013F8015B01F81C
:100AC000015B521EF9D5A142D8D3002070BD1CB5E0
:100AD00000200090034602460146019000F014F801
:100AE0001CBD70477047704770477047704770472C
:100AF000704710B5012006F0B1FB002006F0AEFBF8
:100B000010BD00BFFEE700002DE9F04704460F4688
:100B100015461E46DDE908894FF6FF714D4801F084
:100B200064F821464B4801F05EF80A200AF034FDD3
:100B30002021494801F059F80A200AF02DFD202112
:100B4000454801F050F80A200AF026FD4FF6FF71E3
:100B5000404801F04AF839463E4801F044F80A207E
:100B60000AF01AFD40213C4801F03FF80A200AF043
:100B700013FD4021384801F036F80A200AF00CFD38
:100B80004FF6FF71334801F030F82946314801F043
:100B90002AF80A200AF000FD80212F4801F025F8EC
:100BA0000A200AF0F9FC80212B4801F01CF80A20E9
:100BB0000AF0F2FC4FF6FF71264801F016F83146B4
:100BC000244801F010F80A200AF0E6FC042122482B
:100BD00001F00BF80A200AF0DFFC04211E4801F0A6
:100BE00002F80A200AF0D8FC4FF6FF71194800F00D
:100BF000FCFF4146174800F0F6FF0A200AF0CCFC43
:100C00000821154800F0F1FF14200AF0C5FC082166
:100C1000114800F0E8FF0A200AF0BEFC4FF6FF7111
:100C20000C4800F0E2FF49460A4800F0DCFF0A20C9
:100C30000AF0B2FC1021084800F0D7FF14200AF097
:100C4000ABFC1021044800F0CEFF0A200AF0A4FCFF
:100C5000BDE8F08700140140001001402DE9F84381
:100C600006468846B8F1400F05D1C02040EA46004C
:100C7000401CC7B204E0802040EA4600401CC7B2D6
:100C80004FF48051424800F0AEFF01200AF090FC82
:100C90004FF400513E4800F0A6FF01200AF088FC06
:100CA0004FF480513A4800F0A0FF002421E047FAB9
:100CB00004F000F0010028B14FF40041344800F086
:100CC00094FF04E04FF40041314800F08CFF012014
:100CD0000AF06EFC4FF400512D4800F086FF012011
:100CE0000AF066FC4FF40051294800F07CFF601CBC
:100CF000C4B2082CDBDB4FF40040ADF8000001204B
:100D00008DF8020004208DF803006946204800F0A9
:100D100095FE0025002420E001200AF049FC4FF454
:100D200000411B4800F052FF012803D1802040EA17
:100D3000650500E06D1001200AF03AFC4FF4005107
:100D4000134800F052FF01200AF032FC4FF400512A
:100D50000F4800F048FF601CC4B2082CDCDB012007
:100D60000AF026FC4FF48051094800F03CFF4FF494
:100D70000040ADF8000001208DF8020010208DF831
:100D800003006946024800F059FE2846BDE8F88392
:100D9000000C014010B5BF210320FFF75FFF0446A0
:100DA00004F03000C01004F0300100EB610004F0EA
:100DB0000F014418204610BD10B5BF210220FFF7D7
:100DC0004DFF044604F0800050B104F01000C01044
:100DD00004F0100100EB610004F00F01441809E079
:100DE00004F03000C01004F0300100EB610004F0AA
:100DF0000F014418204610BD10B5BF210120FFF798
:100E00002DFF044604F00F0004F0700100EBE10038
:100E100004F0700100EB6104204610BD10B5BF2145
:100E20000420FFF71BFF044604F01000C01004F07C
:100E3000100100EB610004F00F014418204610BDC2
:100E400010B5BF210020FFF709FF044604F00F0092
:100E500004F0700100EBE10004F0700100EB6104AC
:100E6000204610BD10B5BF210620FFF7F7FE04464F
:100E700004F0F000C01004F0F00100EB610004F099
:100E80000F010844C4B2204610BD70B504460CB131
:100E90001F2C00DD01240A2094FBF0F100FB11401F
:100EA0000A2194FBF1F140EA0110C5B2BF222946A4
:100EB000032000F0A1F870BD70B504460E46012E67
:100EC00028D1182C01DDA12533E00C2C11DDA4F173
:100ED0000C000A2190FBF1F0A02141EA0010A4F1DE
:100EE0000C010A2291FBF2F302FB13110843C5B275
:100EF0001FE0002C0CDD0A2094FBF0F040F0800095
:100F00000A2194FBF1F201FB12410843C5B210E043
:100F100081250EE0172C01DD00250AE00A2094FB54
:100F2000F0F100FB11400A2194FBF1F140EA0110BD
:100F3000C5B2BF222946022000F05EF870BD70B530
:100F400004460CB13B2C00DD01240A2094FBF0F197
:100F500000FB11400A2194FBF1F140EA0110C5B2F7
:100F6000BF222946012000F047F870BD70B5044645
:100F70000CB10C2C00DD01240A2094FBF0F100FBE5
:100F800011400A2194FBF1F140EA0110C5B2BF22E1
:100F90002946042000F030F870BD70B504460E46B6
:100FA0003B2C00DD00240A2094FBF0F100FB1140F3
:100FB0000A2194FBF1F140EA0110C5B2012E01D1E2
:100FC00045F08005BF222946002000F015F870BDCD
:100FD00070B504460A2094FBF0F100FB11400A2191
:100FE00094FBF1F140EA0110C5B2BF222946062068
:100FF00000F002F870BD00002DE9F04105460F46F3
:101000009046B8F1400F05D1FE2000EA450040F0BF
:10101000C00606E0FE2000EA450000F0BF0040F0F8
:1010200080064FF48051344800F0DDFD01200AF0C5
:10103000BFFA4FF40051304800F0D5FD01200AF00E
:10104000B7FA4FF480512C4800F0CFFD002421E086
:1010500046FA04F000F0010028B14FF400412648A0
:1010600000F0C3FD04E04FF40041234800F0BBFD55
:1010700001200AF09DFA4FF400511F4800F0B5FD21
:1010800001200AF095FA4FF400511B4800F0ABFD27
:10109000601CC4B2082CDBDB002421E047FA04F01A
:1010A00000F0010028B14FF40041134800F09DFD0D
:1010B00004E04FF40041104800F095FD01200AF0D3
:1010C00077FA4FF400510C4800F08FFD01200AF030
:1010D0006FFA4FF40051084800F085FD601CC4B25F
:1010E000082CDBDB01200AF063FA4FF48051024840
:1010F00000F079FDBDE8F081000C01402DE9F041E0
:101100000546A4480678A448446A092D72D2DFE84F
:1011100005F0EF1883050EF0ED4DB800207910B9F9
:101120000520207102E02079401E207101E1207924
:10113000052802D10020207102E02079401C207196
:10114000F7E0207906282ED2DFE800F0030A111814
:101150001F2660780E2802DA60780A30607023E07B
:101160006078172802DA6078401C60701CE0A07874
:10117000322802DAA0780A30A07015E0A0783B2867
:1011800002DAA078401CA0700EE0E078322802DA83
:10119000E0780A30E07007E0E0783B2802DAE07897
:1011A000401CE07000E000BF00BFC2E020790628CC
:1011B0002FD2DFE800F0030A1118202760780E28EC
:1011C00002DA60780A30607024E06078172802DA6A
:1011D0006078401C60701DE0A078322802DAA078A8
:1011E0000A30A07016E0A0783B2802DAA078401CF4
:1011F000A0700FE09CE0E078322802DAE0780A3054
:10120000E07007E0E0783B2802DAE078401CE0700C
:1012100000E000BF00BF8CE0207906282ED2DFE876
:1012200000F0030A11181F266078092802DD607893
:101230000A38607023E06078002802DD6078401E84
:1012400060701CE0A078092802DDA0780A38A07040
:1012500015E0A078002802DDA078401EA0700EE006
:10126000E078092802DDE0780A38E07007E0E078ED
:10127000002802DDE078401EE07000E000BF00BF03
:1012800057E0207906282ED2DFE800F0030A111873
:101290001F266078092802DD60780A38607023E034
:1012A0006078002802DD6078401E60701CE0A07845
:1012B000092802DDA0780A38A07015E0A07800287F
:1012C00002DDA078401EA0700EE0E078092802DD63
:1012D000E0780A38E07007E0E078002802DDE07886
:1012E000401EE07000E000BF00BF22E01BE000E015
:1012F0001CE006F0D1FE0021012006F06BFA6078B8
:10130000264981F8B600A178244880F8B710E17822
:1013100080F8B81006F0C0FE0121084606F05AFA1F
:101320000120207005E00120207002E0BDE8F0817E
:1013300000BF00BF00F08AFF2078012812D11648B4
:1013400000691549086220460BF06CFD0020144925
:10135000486201F028F81049886980470E49C86939
:101360008047E3E701200B490870E378A2786178B1
:10137000207900F089F8074806700A4800780128AB
:1013800005D10448007810B9022000F079F900BFB7
:10139000CCE7000041010020CCAB0020209A0020C7
:1013A000A8AC00204301002070B524480578052131
:1013B0000120FEF7C5FF224948620846446A002C16
:1013C0003BD0002020701F4890F8B60060701D4888
:1013D00090F8B700A0701B4890F8B800E0700020AB
:1013E000207101201549087000F0B6FF16A25021A7
:1013F000022002F05BFA1CA282210A2002F056FAB7
:101400001CA2C821022002F051FA27230022EF215A
:10141000104601F043FFE378A2786178207900F06C
:1014200033F80648057017480078012805D10348AD
:10143000007810B9022000F023F970BD41010020AE
:10144000CCAB0020209A0020B5B1B9E2B1EAD6C3F6
:10145000D3DAB8F6CEBBCAB1BCD331A3ACCAAECED8
:10146000BBCAB1BCD331300020203A20203A202022
:10147000000000001B1A3AD2C6B6AF2018193ABCB9
:10148000D3BCF500430100202DE9F04705460E4688
:1014900017469846002460E0AC4201D101F056FAAC
:1014A000304A02EB440251782E4A12F8140001F03F
:1014B0000DFFB02002F070F9062C46D2DFE804F0F0
:1014C000030D19232F390A2096FBF0F0264911F855
:1014D0000090484602F096F938E00A2096FBF0F1B9
:1014E00000FB1160204911F80090484602F08AF98B
:1014F0002CE00A2097FBF0F01B4911F800904846B9
:1015000002F080F922E00A2097FBF0F100FB117055
:10151000154911F80090484602F074F916E00A20C7
:1015200098FBF0F0104911F80090484602F06AF973
:101530000CE00A2098FBF0F100FB11800A4911F839
:101540000090484602F05EF900E000BF00BFAC42E8
:1015500001D101F0FDFC601CC4B2062C9CDBBDE88F
:10156000F0870000D8580108B25801087047000001
:1015700010B5002404F070F81C200AF04EFD04465B
:10158000012000F085F800282FD004F0400030B191
:1015900001201749087017A007F008FE22E004F0A8
:1015A000010030B101201249087014A007F0FEFDBF
:1015B00018E004F01000A8B112A007F0F7FD132006
:1015C0000AF0EEFC00F0140060B111200AF0E8FC13
:1015D00000F4806018B110A007F0E8FD02E012A04E
:1015E00007F0E4FD012000F027F804F047F810BDF3
:1015F00024010020504B5449460A000052584552DD
:1016000049460A006C696E6B2073746174652063CF
:1016100068616E6765640A006C696E6B2061637453
:1016200069766174650A00006C696E6B20696E767C
:10163000616C69640A00000001490860704700009D
:10164000140401401CB50220009000208DF8040015
:101650000C208DF8050001208DF80600684600F08A
:101660002BF80120009000208DF804000C208DF84C
:10167000050001208DF80600684600F01DF81CBD2D
:10168000024909680143014A116070471004014092
:10169000014600200022074B1B6803EA0102054BAC
:1016A00014331B680B4013B10AB1012000E0002085
:1016B0007047000000040140002123498279002A7C
:1016C0003AD00A46126803689A430B461A600A1D0C
:1016D000126803689A430B1D1A60027911440A6864
:1016E00003681A430A60184A0832126803689A436A
:1016F000154B08331A601A1D126803689A43124B7F
:101700000C331A604279102A0ED11A1F126803682E
:101710001A430D4B08331A601A1D126803681A43E6
:10172000094B0C331A600DE00749427911440A68ED
:1017300003681A430A6005E0027911440A680368E5
:101740009A430A60704700000004014025A029491F
:10175000086002200872502048720020C86026A04D
:1017600048602A4848612A4888612AA0C861022145
:10177000204880F824106E2180F825100021816215
:1017800028A101622C4901632C4941632CA019490D
:1017900088630221174880F84010822180F84110A8
:1017A000002141642AA1C1632E49C1642E4901650B
:1017B00003202E490870002048702DA048600D4875
:1017C000C8602E4888602E4808612E4848612E481F
:1017D00088612E48C8610846006908620020486296
:1017E00070470000C9C1CBB8D0EDBFC9C9E8D6C3A6
:1017F0000000000078AB0020C9E8D6C3D4CAD0ED01
:10180000C9C1CBB8B5C4B5C6C9AB0000F5CC00089A
:10181000ADCC0008B0D7CCECB3A3C9C1C9E8D6C3DE
:1018200000000000C9E8D6C3B0D7D6E7B3A3C9C14A
:10183000B5C6C9AB0000000041A40008F5A300082C
:10184000D2B9BCE4B3A3C9C1C9E8D6C30000000043
:10185000C9E8D6C3CDEDBCE4B3A3C9C1B5C6C9AB15
:101860000000000049ED0008FDEC000850AB00202E
:10187000C9C1CBB8C9E8D6C30000000018A9002030
:1018800071E90008FDB500085DB70008C9B6000899
:1018900008B54FF6FF40ADF8000002208DF80200B9
:1018A00010208DF8030069464F4800F0C7F84FF448
:1018B0004070ADF8000002208DF8020004208DF881
:1018C00003006946484800F0B9F84FF6FF70ADF8DC
:1018D000000003208DF8020010208DF803006946F7
:1018E000424800F0ABF8FC20ADF8000002208DF873
:1018F000020010208DF8030069463D4800F09EF874
:101900004FF40070ADF8000003208DF8020018209D
:101910008DF803006946374800F090F84FF4806076
:10192000ADF8000003208DF8020004208DF80300BC
:101930006946304800F082F84FF47C50ADF8000062
:1019400002208DF8020004208DF803006946284823
:1019500000F074F8C020ADF8000003208DF80200FC
:1019600014208DF803006946234800F067F8202012
:10197000ADF8000010208DF8030069461E4800F005
:101980005DF8E020ADF8000001208DF8020018207D
:101990008DF803006946174800F050F81020ADF8A4
:1019A00000008DF803006946124800F047F84FF434
:1019B0003040ADF8000010208DF8030001208DF8B4
:1019C000020069460C4800F039F80120ADF800002B
:1019D00004208DF803006946074800F02FF8002125
:1019E000012000F00BF808BD001801400014014070
:1019F0000010014000080140000C014030B50022F9
:101A00008B071C0F0F2303FA04F20B4B8C1053F8B7
:101A100024309343084C8D1044F8253023468C1015
:101A200053F824308C07240F00FA04F42343024CAB
:101A30008D1044F8253030BD080001402DE9F041FB
:101A4000024600250026002000230024002791F8EC
:101A500003C00CF00F0591F803C00CF0100CBCF1A2
:101A6000000F03D091F802C04CEA050591F800C0C0
:101A7000BCF1000F31D0146800202BE04FF0010CB6
:101A80000CFA00F3B1F800C00CEA03069E4220D124
:101A900083004FF00F0C0CFA03F7BC4305FA03FC6C
:101AA0004CEA040491F803C0BCF1280F06D14FF0B2
:101AB000010C0CFA00FCC2F814C00AE091F803C053
:101AC000BCF1480F05D14FF0010C0CFA00FCC2F834
:101AD00010C0401C0828D1D31460B1F800C0BCF17C
:101AE000FF0F34DD546800202EE000F1080C4FF0A9
:101AF000010808FA0CF3B1F800C00CEA03069E4294
:101B000021D183004FF00F0C0CFA03F7BC4305FA08
:101B100003FC4CEA040491F803C0BCF1280F05D182
:101B200000F1080C08FA0CF8C2F8148091F803C010
:101B3000BCF1480F07D100F1080C4FF0010808FA7A
:101B40000CF8C2F81080401C0828CED35460BDE8C1
:101B5000F081000010B54FF48061164800F045F8A0
:101B6000012009F019FD4FF6FF71124800F03DF811
:101B7000FC21114800F037F84FF6FF710F4800F0D4
:101B800034F820210E4800F02EF84FF47A7009F056
:101B9000FDFC20210A4800F028F84021084800F008
:101BA00022F8022009F0F8FC8021054800F01DF819
:101BB00010BD000000180140001001400014014059
:101BC000000C01400146886880B270470246002040
:101BD00093680B400BB1012000E0002070470146E4
:101BE000C86880B270474161704701617047C16049
:101BF0007047000010B5FFF735F900F5FA600C49A1
:101C00004861FFF70BF9401E09490861FFF7C2F868
:101C10000749C860FFF7D0F805498860FFF7ECF87E
:101C200003494860FFF70CF90149086010BD000046
:101C3000F49900202DE9F041002408E09B4901EBD4
:101C400004122001102109F02BFE601CC4B2062CE6
:101C5000F4DB00243AE0002634E0944800EB041062
:101C6000855D602D05DD0021904800EB0410815555
:101C700026E025B328460CF019F901281AD1681E70
:101C8000C21700EB12721211894B33F81220691E31
:101C9000CB1701EB13731B11A1EB03170123BB40FF
:101CA0001A4393B2C21700EB12721211804F27F839
:101CB000123004E000217D4800EB0410815500BF84
:101CC000701CC6B2102EC8DB601CC4B2062CC2DB6E
:101CD00012207649313981F8B6001E217348313817
:101CE00080F8B71080F8B810480170493139A1F870
:101CF000920000216D483138A0F89410A0F8961099
:101D0000A0F89810A0F89A10A0F89C10A0F89E10C7
:101D1000A0F8A010A0F8A210A0F8A410A0F8A61097
:101D2000A0F8A810A0F8AA10A0F8AC10A0F8AE1067
:101D3000A0F8B010A0F8B210A0F8B41002205B49CF
:101D4000313908700C2048703A2158483138817078
:101D50000021C17004205549313981F8BA000821A9
:101D60005248313880F8BB10092180F8BC100A2194
:101D700080F8BD100B2180F8BE1046F22701A0F8B4
:101D8000CC104BF20461A0F8CE1049F20871A0F813
:101D9000D0104FF42F41A0F8D21046F22701A0F83E
:101DA000EC104BF20461A0F8EE1049F20871A0F8B3
:101DB000F0104FF42F41A0F8F21046F22701A0F8DE
:101DC0000C114BF20461A0F80E1149F20871A0F851
:101DD00010114FF42F41A0F8121146F22701A0F87C
:101DE0002C114BF20461A0F82E1149F20871A0F8F1
:101DF00030114FF42F41A0F8321146F22701A0F81C
:101E00004C114BF20461A0F84E1149F20871A0F890
:101E100050114FF42F41A0F8521146F22701A0F8BB
:101E20006C114BF20461A0F86E1149F20871A0F830
:101E300070114FF42F41A0F872110E210171002191
:101E400041718171022180F88C11142180F88D116B
:101E50000C2180F88E1140F20641A0F89E1146F642
:101E60002501A0F8A01140F60441A0F8BE1146F6E5
:101E70002501A0F8C01141F20601A0F8DE1146F6D6
:101E80002501A0F8E0114FF4E051A0F8FE1146F64C
:101E90002501A0F800120021A0F81E12A0F82012BF
:101EA000A0F83E12A0F84012BDE8F081519A00203F
:101EB00084AD002000BFFEE71FB50F4800F02CF8EE
:101EC0000E4800900020ADF804004BF6FF70ADF80E
:101ED00006003A20ADF808004FF48060ADF80A0023
:101EE0000001ADF80C006946034800F031F801210B
:101EF000014800F005F81FBD00540040A086010015
:101F000021B1028842F00102028004E002884FF60B
:101F1000FE731A400280704710B504460B48844295
:101F200009D10121480505F069F900214FF400109D
:101F300005F064F908E00121880505F05FF900214A
:101F40004FF4800005F05AF910BD00000054004025
:101F50002DE9F04385B004460D460026B14604271E
:101F6000DFF8CC80A6884FF6C0700640684605F0C2
:101F7000CDF9DDF808802F48B8FBF0F01FFA80F9A2
:101F800046EA0906A68020884FF6FE7108402080A8
:101F900000262949286888420CD828684000B8FBE8
:101FA000F0F087B2042F00DA04273E4309F1010064
:101FB000208427E0E8884BF6FF71884206D1286824
:101FC00000EB4000B8FBF0F087B209E0286800EBB6
:101FD000C00101EB0010B8FBF0F087B247F4804776
:101FE000C7F30B0008B947F0010747F40040064368
:101FF0004FF4967009FB00F04FF47A7190FBF1F00A
:10200000401C2084A683208840F001002080268880
:102010004FF6F5300640A8886989084306432680B4
:10202000A88929890843208105B0BDE8F083000014
:1020300000127A0040420F00A086010010B501F0A6
:102040007BF80D480068407838B90B480068007884
:10205000401E09490968487006E007480068407852
:10206000401E05490968487000F080FF0249096870
:10207000C869804710BD00005001002010B501F074
:102080005BF80E48006841780C4800680078401EF4
:10209000814204D1002009490968487006E00748D8
:1020A00000684078401C05490968487000F05EFFF0
:1020B00002490968C869804710BD0000500100202E
:1020C00010B501F039F80C4800680C4988420BD172
:1020D000094800684078062806DB07480068407811
:1020E000801F05490968487000F040FF02490968EF
:1020F000C869804710BD00005001002018A90020C9
:1021000010B501F019F8124800681249884217D139
:102110000F4800684078801D0D4909680978884299
:1021200007DA0B4800684078801D09490968487043
:1021300006E0074800680078401E054909684870B5
:1021400000F014FF02490968C869804710BD00000B
:102150005001002018A9002010B5294804686178B2
:10216000C1EBC101E06800EB8100C068F0B16178AB
:10217000C1EBC101E06800EB8100C0682049086044
:10218000606909684969884205D000F0FFF81C4978
:1021900009684869804700F006F9194909688869A3
:1021A000804717490968C869804728E06178C1EB12
:1021B000C101E06800EB8100406980B16278C2EB48
:1021C000C202E16801EB8201886980476178C1EB56
:1021D000C101E06800EB8100406920620FE0617896
:1021E000C1EBC101E06800EB8100006938B16278A1
:1021F000C2EBC202E16801EB82010869804710BDB1
:102200005001002010B510480468A068D8B1002023
:102210006070206920620C49A068086060690968E4
:102220004969884205D000F0B1F807490968486952
:10223000804700F0B8F80449096888698047024976
:102240000968C869804710BD500100200D4800781A
:10225000002804DD0B480078401E0A490870002061
:1022600009490A4A12788854084800780F2805DA84
:1022700006480078401C0549087002E00020034928
:10228000087070474901002008A90020470100207C
:1022900070B50446122000F045FF00F0FC0040EA53
:1022A00004052946122001F0E3FA012009F074F92F
:1022B00070BD2DE9F04704460D462F46122000F070
:1022C00031FF00F00308122000F02CFF00F0FC09A1
:1022D0004946122001F0CCFA0021602001F0C8FA32
:1022E0002146702001F0C4FAB02001F055FA002612
:1022F00005E017F8010B01F085FA701CC6B2202E1C
:10230000F7DB122000F00EFF00F0FC0040EA0809A5
:102310004946122001F0ACFABDE8F08710B500F094
:10232000A9FE00F02DFA0021E02001F0A1FA002022
:1023300000F0F8FE40F008042146F02001F098FA81
:10234000012009F029F900BF002000F0EBFE00F0A9
:1023500008000028F8D110BD10B50120FFF798FF44
:1023600027230022EC214A2000F098FFFFF7D6FF38
:1023700010BD10B50120FFF78BFF1C230122EC21BB
:102380004A2000F08BFFFFF7C9FF10BD10B50220F7
:10239000FFF77EFF26230122EC21352000F07EFF8F
:1023A000FFF7BCFF10BD10B50120FFF771FF272319
:1023B0000022EC21352000F071FFFFF7AFFF10BDC8
:1023C00070B50446122000F0ADFE00F0F30040EAC4
:1023D00004052946122001F04BFA70BD1CB50120FE
:1023E000FFF756FF26230122EC21352000F056FF8F
:1023F000FFF794FF0220FFF74BFF26230122EC2179
:10240000352000F04BFFFFF789FF8F2013210123B8
:102410000222CDE900103521184600F095F814206D
:10242000262102230122CDE90010C421104600F02C
:102430008BF82022C621022001F09AF900244EE0F8
:1024400035484078A04201D100F080FAC4EBC400C6
:10245000324901EB8000C06870B1C4EBC4020B4686
:1024600003EB8202517AC4EBC40203EB8202107ABE
:102470002BA201F01BFA23E0C4EBC400274901EBB7
:102480008000406970B1C4EBC4020B4603EB8202CA
:10249000517AC4EBC40203EB8202107A21A201F04C
:1024A00005FA0DE0C4EBC4021C4B03EB8202517A27
:1024B000C4EBC40203EB8202107A1BA201F0F6F90E
:1024C000C4EBC401154A52F8210001F0DBF91248AF
:1024D0004078A04201D100F03BFD601CC4B20E4820
:1024E0000078A042ACDC11A2C621022001F0DEF986
:1024F00009484078C0EBC000084901EB8000DA21B0
:102500004268022001F0D2F927230022EF21104671
:1025100000F0C4FE1CBD000018A9002040A9002046
:102520002B200000102000002020000018191A1B8A
:102530003AD2C6B6AF20454E543AD1A1D4F1204587
:1025400053433ACDCBB3F6002DE9F84F07460D467D
:1025500090469946DDF828A00220FFF799FE00F08A
:1025600089FD00241CE00B9800FB0450C1B23846E2
:1025700000F0ACFEB02001F00FF94FF0000B09E0C5
:10258000FF2001F03FF9012009F006F80BF10100EE
:1025900000F0FF0B0AFB08F05845F1DC601CC4B2E8
:1025A00009F101008442DEDB002428E000261FE060
:1025B000AA19521CD1B20AFB0472D0B200F086FEF6
:1025C000B12001F0E9F800F063FD0090AA19521C57
:1025D000D1B20AFB0472D0B200F078FEB02001F054
:1025E000DBF8009941F0800001F00CF9701CC6B2D4
:1025F0000B9800FB09F0B042DADC601CC4B208F1B1
:1026000001008442D2DBBDE8F88F2DE9F047074690
:102610000D4616469A460220FFF73AFE00F02AFDC4
:102620000024A5E0002C36D12819C1B2384600F0AC
:102630004DFEB12001F0B0F800F02AFD804660198F
:10264000C1B2384600F042FEB02001F0A5F848F0D3
:102650000F0001F0D7F84FF0010906E0FF2001F06C
:10266000D1F809F1010000F0FF09B145F6DBB12016
:1026700001F092F800F00CFD80466219D1B2BA194F
:10268000D0B200F023FEB02001F086F848F0F00050
:1026900001F0B8F86AE0AAF10100A04235D1601952
:1026A000C1B2384600F012FEB12001F075F800F01A
:1026B000EFFC80466019C1B2384600F007FEB0203A
:1026C00001F06AF848F00F0001F09CF84FF00109A2
:1026D00006E0FF2001F096F809F1010000F0FF0983
:1026E000B145F6DBB12001F057F800F0D1FC80468F
:1026F0006219D1B2BA19D0B200F0E8FDB02001F0F1
:102700004BF8F02001F07EF830E02819C1B23846CD
:1027100000F0DCFDB12001F03FF800F0B9FC80468C
:102720002819C1B2384600F0D1FDB02001F034F8CC
:1027300048F0080001F066F82A19D1B2BA19521E01
:10274000D0B200F0C3FDB12001F026F800F0A0FCEB
:1027500080462A19D1B2BA19D0B200F0B7FDB02024
:1027600001F01AF848F0100001F04CF8601CC4B2F7
:102770005445FFF657AFB12001F00EF8BDE8F087E1
:1027800010B5012000F0CEFC20F08004214601208D
:1027900001F06EF810BD70B5044600F06BFCFFF759
:1027A000EFFF2146E02001F063F8002000F0BAFCC2
:1027B00040F008052946F02001F05AF870BD0000ED
:1027C00010B504490020FFF774FD03490120FFF70D
:1027D00070FD10BD725801089258010810B500F044
:1027E0003BFD0421002001F043F80421012001F009
:1027F0003FF80021032001F03BF800210F2001F0F9
:1028000037F80021102001F033F80021112001F0E9
:102810002FF80320FFF73CFD302000F063FD04207B
:10282000FFF7CEFD27230022EF21104600F036FDF2
:102830000020FFF7B0FF2721212001F019F8EF2138
:10284000312001F015F80021612001F011F800217C
:10285000712001F00DF80021622001F009F800213B
:10286000722001F005F80021602001F001F8082134
:10287000702000F0FDFF0221802000F0F9FF002110
:10288000902000F0F5FF0021F12000F0F1FF012081
:1028900000F036FDF02000F045FC00F0FB0421467E
:1028A000F02000F0E5FF0120FFF7F2FC10BD000072
:1028B00010B5EF23272200210846FFF7A6FE0BA242
:1028C0000221012000F0F2FF12A21321012000F0EA
:1028D000EDFF14A21321142000F0E8FF15A224211B
:1028E000012000F0E3FFFFF779FD10BDB5B1C7B0DF
:1028F000CAB1BCE43A5B202020202D20202D2020CE
:102900005D5B20203A20203A20205D20D0C7C6DA27
:1029100000000000D4CBD0D0CAB1B6CE3A202028D7
:1029200020202900D4CBD0D0CFE0CEBB3A20202825
:1029300020202900B5B1C7B0CFE0CEBBCAA3D3E0F9
:10294000CAB1BCE43A202020C3EB000010B510202F
:1029500000F0E8FB40F020042146102000F088FF42
:1029600010BD00002DE9F0410646C3480778C34872
:10297000446A0C2E7ED2DFE806F0F11BD506107DEE
:10298000F0BEEF0711EE00BF607810B91020607044
:1029900002E06078401E60702EE100BF6078102871
:1029A00002D10020607002E06078401C607023E17A
:1029B000607818BBA07C052803DAA07C401CA074BA
:1029C00001E00020A074002508E0A17CAC4800EBE9
:1029D0000110415DA01C4155681CC5B2102DF4DBEF
:1029E000002508E0A74830F8151004F1140020F87D
:1029F0001510681CC5B2062DF4DB7BE000BF6278C1
:102A0000521EA31C9A5C501EC21700EB12721311C7
:102A100004F1140232F8132063785B1E04F1020CF7
:102A20001CF80330591ECB1701EB13731B11A1EBDC
:102A3000031C012303FA0CF35A401FFA82FC62784C
:102A4000521EA31C9A5C501EC21700EB1272131187
:102A500004F1140222F813C06078401EA11C085C27
:102A6000602811DA6078401E085C401CC2B26078B1
:102A7000401E00E0BFE00A546178491EA21C505C71
:102A80000BF014FA28B9BAE700226078401EA11CA6
:102A90000A546078401EA11C085C58B36278521E2C
:102AA000A31C9A5C501EC21700EB1272131104F1A2
:102AB000140232F8132063785B1E8C461CF8033036
:102AC000591ECB1701EB13731B11A1EB031C012340
:102AD00003FA0CF31A431FFA82FC6278521EA31CFD
:102AE0009A5C501EC21700EB1272131104F114020B
:102AF00022F813C080E0607898B16078401EA11C75
:102B0000085C602808DA6078401E085C401CC2B28D
:102B10006078401E0A5404E000226078401EA11C28
:102B20000A5469E06078D0B9A07C002803DDA07C5D
:102B3000401EA07401E00520A074002508E0A17CDF
:102B40004F4800EB0110415DA01C4155681CC5B207
:102B5000102DF4DB17E02EE016E048E04AE0607844
:102B6000401EA11C085C002808DD6078401E085C3F
:102B7000401EC2B26078401E0A5404E060226078B1
:102B8000401EA11C0A5437E0607898B16078401E5E
:102B9000A11C085C002808DD6078401E085C401E0F
:102BA000C2B26078401E0A5404E060226078401E81
:102BB000A11C0A5420E005F06FFA0021012004F066
:102BC00009FE002508E0A01C415DA27C2C4800EB1A
:102BD00002104155681CC5B2102DF4DB05F05CFAFB
:102BE0000121084604F0F6FD0120E07404E0012014
:102BF000207001E002E000BF00BF07E0E07C18B1F8
:102C00000020E0740BF027F9BDE8F081FFF71EFB10
:102C1000E07C012803D11CA00BF030F900E000BFDC
:102C200000BF2078012812D11448006913490862B6
:102C300020460AF0F7F8002010494862FFF7B3FB7E
:102C40000E49886980470D49C8698047DCE7012043
:102C5000094908706078A11C00F012F90648077055
:102C60000C480078012805D10348007810B90220EB
:102C7000FEF706FD00BFC7E7410100202CAC002095
:102C8000519A002084AD0020C9E8D6C3B3C9B9A6C3
:102C9000000000004301002070B53F480678202165
:102CA0000120FDF74DFB3D4948620846446A002C6F
:102CB00070D0002020706070A074E074002508E0DF
:102CC000A17C374800EB0110415DA01C4155681CF8
:102CD000C5B2102DF4DB002508E0324830F815109D
:102CE00004F1140020F81510681CC5B2062DF4DBA1
:102CF000012029490870FFF72FFB27230022EF212D
:102D0000104600F0CBFA28A24B21022000F0CEFDA5
:102D10002DA25D210B2000F0C9FD2FA26F210520FF
:102D200000F0C4FD31A28121052000F0BFFD34A2D6
:102D30009321052000F0BAFD36A2A521052000F060
:102D4000B5FD39A2B721052000F0B0FD3BA2C92195
:102D5000052000F0ABFD3EA2B0211D2000F0A6FD35
:102D60003DA2C4211D2000F0A1FD3EA2DC210220D5
:102D700000F09CFD6078A11C00F082F80648067007
:102D80003E480078012805D10348007810B9022098
:102D9000FEF776FC70BD0000410100202CAC002045
:102DA000519A002084AD0020B5C6D7E9202028B66E
:102DB000CBBFDAD0F2BAC53A312D393620A1C13AAB
:102DC000BDFBD3C329000000C2CC202020BBC620FD
:102DD0002020BAEC00000000D7F3D7AA205B202007
:102DE0005D205B20205D205B20205D00D6B1D0D02F
:102DF000205B20205D205B20205D205B20205D008B
:102E0000D3D2D7AA205B20205D205B20205D205BF1
:102E100020205D00B5F7CDB7205B20205D205B2032
:102E2000205D205B20205D00C8CBD0D0315B20200E
:102E30005D2020202020205B20205D00C8CBD0D04A
:102E4000325B20205D2020202020205B20205D00A0
:102E50001A1B3AD2C6B6AF0018193AD1A1D4F1B6AE
:102E6000CBBFDA00C7EBB3A4B0B4C8B7B6A8BCFCFC
:102E7000D2D4B1A3B4E6C9E8D6C300004301002010
:102E80002DE9F041074688462C48456A002450E069
:102E90006878A04201D1FFF759FD74B9AB7C5B1C87
:102EA000274E56F82320274B03EB44035978254B34
:102EB00013F8140000F0FAFC34E0224A02EB44025A
:102EC0005178204A12F8140000F000FA601EA91C84
:102ED000085C18B91CA000F0D5FC23E0B02000F07D
:102EE0005BFC601EA91C085C0A2190FBF1F008B98C
:102EF000202007E0601EA91C085C0A2190FBF1F06D
:102F00001249085C064600F07DFC601EA91C085CA6
:102F10000A2190FBF1F201FB12000C490E5C3046D5
:102F200000F070FC6878A04201D100F011F8601C3C
:102F3000C4B2112CACDBBDE8F08100002CAC002049
:102F400068010020E4580108A1C10000B25801083E
:102F500010B5102000F0E6F820F0200421461020E3
:102F600000F086FC012008F017FB10BD10B53C48AE
:102F70000478FFF7EBFC3B480068C06839490968F2
:102F80004978C1EBC10100EB8100C068C8B1354A86
:102F90001268D268334B1B685B78C3EBC30302EB48
:102FA0008302517A2F4A1268D2682E4B1B685B78D5
:102FB000C3EBC30302EB8302107A2BA200F076FC72
:102FC0003EE028480068C068264909684978C1EB96
:102FD000C10100EB81004069C8B1224A1268D26881
:102FE000204B1B685B78C3EBC30302EB8302517A6F
:102FF0001C4A1268D2681B4B1B685B78C3EBC30387
:1030000002EB8302107A19A200F050FC18E0154A76
:103010001268D268134B1B685B78C3EBC30302EBE7
:103020008302517A0F4A1268D2680E4B1B685B7894
:10303000C3EBC30302EB8302107A0DA200F036FC4F
:1030400008490968C968074A12685278C2EBC20287
:1030500051F8220000F016FCFFF77AFF10BD0000C7
:1030600041010020500100202B2000001020000012
:103070002020000010B5002000F054F820F00804D3
:103080002146002000F0F4FB052008F085FA10BD71
:1030900038B500BF4FF480712148FEF797FD002836
:1030A000F8D0FF20ADF8000003208DF802000420C6
:1030B0008DF8030069461A48FEF7C0FC4FF44051F2
:1030C0001748FEF792FD4FF480611548FEF78BFD1F
:1030D0004FF400611248FEF786FD4FF4005110488E
:1030E000FEF781FD0E48FEF76DFDC4B24FF40051AE
:1030F0000B48FEF77AFD4FF480610948FEF775FD35
:10310000FF20ADF8000003208DF8020010208DF89C
:10311000030069460248FEF791FC204638BD0000D6
:103120000018014070B50446204600F035FBFFF75B
:10313000AFFF0546284670BD10B541480478012010
:103140003F4908703F480068C0683E4909684978AF
:10315000C1EBC10100EB8100C068C8B1394A1268F7
:10316000D268384B1B685B78C3EBC30302EB830266
:10317000517A344A1268D268324B1B685B78C3EBD1
:10318000C30302EB8302107A2FA200F08FFB3EE014
:103190002C480068C0682B4909684978C1EBC10117
:1031A00000EB81004069C8B1264A1268D268254BFD
:1031B0001B685B78C3EBC30302EB8302517A214A9D
:1031C0001268D2681F4B1B685B78C3EBC30302EB2A
:1031D0008302107A1DA200F069FB18E0194A1268F8
:1031E000D268184B1B685B78C3EBC30302EB830206
:1031F000517A144A1268D268124B1B685B78C3EB91
:10320000C30302EB8302107A11A200F04FFB0D49B9
:103210000968C9680B4A12685278C2EBC20251F8B9
:10322000220000F02FFB064804700A4800780128AD
:1032300005D10348007810B90120FEF721FA10BD2E
:1032400041010020500100202B2000001020000030
:10325000202000004301002010B54FF480610E488B
:10326000FEF7C1FC4FF440510B48FEF7BEFC4FF493
:1032700080410948FEF7B7FC43F6982008F098F91A
:103280004FF480410448FEF7B0FC4FF480610248DF
:10329000FEF7ABFC10BD0000001801402DE9F04125
:1032A00004460F4615461E462946402000F0E0FA27
:1032B0002146502000F0DCFA3146202000F0D8FAF8
:1032C0003946302000F0D4FABDE8F08170B50446EC
:1032D0000D462146602000F0CBFA2946702000F010
:1032E000C7FA70BD70B504461220FFF71BFF00F04F
:1032F0008F0040EA04052946122000F0B9FA70BD9B
:1033000070B50446012C09D11020FFF70BFF40F0E7
:1033100010052946102000F0ABFA08E01020FFF756
:1033200001FF00F0EF052946102000F0A1FA70BD62
:1033300010B50020FFF7F6FE40F0080421460020FB
:1033400000F096FAF020FFF7EDFE00F0FB042146B6
:10335000F02000F08DFAFFF713FA052008F01CF9B1
:1033600010BD000070B56020FFF7DCFE064670203F
:10337000FFF7D8FE044600BFF020FFF7D3FE00F0B1
:1033800001000028F8D127230022EF211046FFF783
:1033900085FFE64840694FF47A7190FBF1F0E4490B
:1033A0000D5C2A4602210B2000F0E2F9DF4840695B
:1033B000642190FBF1F00A2190FBF1F201FB120075
:1033C000DB490D5C284600F0C5F9D8484069642106
:1033D00090FBF1F201FB12000A2190FBF1F0D449BD
:1033E0000D5C284600F0B6F9D04840690A2190FBF0
:1033F000F1F201FB1200CE490D5C284600F0AAF95B
:103400002D2000F0A7F9C9480069401C0A2190FB53
:10341000F1F008B9202007E0C4480069401C0A21E7
:1034200090FBF1F0C249085C054600F093F9BF48F3
:103430000069401C0A2190FBF1F201FB1200BC491B
:103440000D5C284600F086F92D2000F083F9B7487E
:10345000C0680A2190FBF1F008B9202006E0B348CB
:10346000C0680A2190FBF1F0B149085C054600F004
:1034700071F9AE48C0680A2190FBF1F201FB12001D
:10348000AB490D5C284600F065F9A8488069A94958
:1034900051F820200221252000F008FAA348806876
:1034A0000A2190FBF1F008B9202006E09F488068CF
:1034B0000A2190FBF1F09E49085C05462A4602214C
:1034C000172000F055F9994880680A2190FBF1F225
:1034D00001FB120096490D5C284600F03BF93A20AA
:1034E00000F038F9914840680A2190FBF1F008B9E2
:1034F000202006E08D4840680A2190FBF1F08C49BD
:10350000085C054600F026F9884840680A2190FBCF
:10351000F1F201FB120086490D5C284600F01AF911
:103520003A2000F017F9814800680A2190FBF1F079
:1035300008B9202006E07D4800680A2190FBF1F0E0
:103540007B49085C054600F005F9784800680A21C7
:1035500090FBF1F201FB120075490D5C284600F06A
:10356000F9F875480078401C0A2190FBF1F008B981
:10357000202006E0704800780A2190FBF1F06C49A9
:10358000085C05462A4613210A2000F0F1F86A4833
:103590000078401C0A2190FBF1F201FB1200644903
:1035A0000D5C284600F0D6F8644800780A2190FBAC
:1035B000F1F008B9202006E0604800780A2190FB6D
:1035C000F1F05B49085C05462A4613210D2000F006
:1035D000CFF85A4800780A2190FBF1F201FB120063
:1035E00053490D5C284600F0B5F855480078401C5A
:1035F0000A2190FBF1F008B9202006E0504800783D
:103600000A2190FBF1F04A49085C05462A4613213D
:103610001D2000F0ADF84A480078401C0A2190FBBC
:10362000F1F201FB120042490D5C284600F092F8CD
:1036300041480078C0EB0010C0EBC0013F48BA30F1
:1036400010F811000A2190FBF1F008B920200EE0DB
:1036500039480078C0EB0010C0EBC0013748BA30E1
:1036600010F811000A2190FBF1F03149085C054681
:103670002A461321202000F07BF82F480078C0EB69
:103680000010C0EBC0012D48BA3010F811000A211B
:1036900090FBF1F201FB120025490D5C284600F079
:1036A00059F8284800780A2190FBF1F008B9202049
:1036B00006E0244800780A2190FBF1F01C49085CE0
:1036C00005462A462421122000F052F81D480078B1
:1036D0000A2190FBF1F201FB120015490D5C28460E
:1036E00000F038F818480078012805D1002224217C
:1036F0001C2000F0FAF804E014A224211C2000F0A1
:10370000D5F813480078012805D1012224211F2073
:1037100000F0EBF804E00DA224211F2000F0C6F811
:1037200021463046FFF7D2FD70BD0000F49900201D
:10373000B25801086801002046010020209A0020AC
:1037400045010020440100203B0100202020000012
:103750003F01002010B504460120FEF799FDFFF758
:10376000E7FDB02000F018F8204600F04BF810BD3F
:1037700070B505460E4614460120FEF789FDFFF799
:10378000D7FD31462846FFF7A1FDB02000F004F830
:10379000204600F037F870BD70B5044600BF4FF406
:1037A00080711748FEF712FA0028F8D04FF4405104
:1037B0001348FEF71AFA1248FEF711FA00F47F4098
:1037C00040EA040529460E48FEF711FA4FF48061DD
:1037D0000B48FEF708FA4FF400610948FEF705FAB6
:1037E0004FF480510648FEF7FEF94FF4805104482B
:1037F000FEF7FBF94FF480610148FEF7F6F970BD62
:103800000018014070B5044600BF4FF4807117489E
:10381000FEF7DCF90028F8D04FF440511348FEF7CA
:10382000E4F91248FEF7DBF900F47F4040EA0405B2
:1038300029460E48FEF7DBF94FF480610B48FEF78E
:10384000D2F94FF400610948FEF7CDF94FF48051E9
:103850000648FEF7C8F94FF480510448FEF7C5F951
:103860004FF480610148FEF7C0F970BD00180140B7
:1038700070B505460C462846FFF78EFF2046FFF739
:10388000C1FF70BD70B505462C460120FEF700FD56
:10389000FFF74EFDB020FFF77FFF03E014F8010BA8
:1038A000FFF7B0FF20780028F8D170BD2DE9F04176
:1038B00006460F4615462C460120FEF7E9FCFFF7A9
:1038C00037FD39463046FFF701FDB020FFF764FFB2
:1038D00006E014F8010BFFF795FF012007F05CFEEE
:1038E00020780028F5D1BDE8F0812DE9F0410546AA
:1038F0000E4614460120FEF7CBFCFFF719FD002011
:10390000FFF710FC40F0400739460020FFF7B0FFFA
:1039100031462846FFF7DAFCB020FFF73DFF9F2035
:10392000FFF770FF2046FFF76DFF0020FFF7FAFB5F
:1039300020F0400739460020FFF79AFFBDE8F081EC
:1039400025A029490860022008725020487227A04B
:1039500048600020C8602C4848612C4888612CA031
:10396000C8610221204880F82410642180F82510C5
:103970002CA1016200218162016341633049C1626F
:1039800030A0194988630221174880F84010782137
:1039900080F841102FA1C16300214164C164016519
:1039A000344981640320344908700020487033A0F2
:1039B00048600D48C860344888603448086134481D
:1039C0004861344888613448C86108460069086223
:1039D0000020486270470000D0DEB8C4B5C6D7E901
:1039E000D0F2BAC50000000054AC0020D0DEB8C44C
:1039F000B5C6D3EBCAE4B3F6BFDAB5C4D3B3C9E4F2
:103A0000B9D8CFB50000000065290008992C00083E
:103A1000B1A3B4E6B5C6D7E9BDD3BFDAC9E8D6C30A
:103A200000000000B1A3B4E6B5C6D7E9D0F2BAC52C
:103A3000B5BDCDE2B2BFB4E6B4A2C6F70000000047
:103A4000E5DE0008BBD6B8B4B3F6B3A7C9E8D6C361
:103A500000000000BDABBDD3BFDAC9E8D6C3BBD6FA
:103A6000B8B4CEAAC4ACC8CFB3F6B3A7D7B4CCAC65
:103A70000000000045F500082CAC0020B5C6CEBB08
:103A8000B5C6C9AB0000000018A9002071E9000804
:103A9000FDB500085DB70008C9B600082DE9F04182
:103AA00005468048446A112D73D2DFE805F0871778
:103AB00025091033731E2C888888888888887E00A2
:103AC0002078272802DA20780A30207078E02078E1
:103AD0000A2802DD20780A38207071E0207830282A
:103AE00002DA2078401C20706AE02078302802DA60
:103AF0002078401C207063E02078012802DD2078C7
:103B0000401E20705CE02078012802DD2078401EF5
:103B1000207055E020790B2800D151E04FF6FF715D
:103B20006148FEF762F82078461EF01706EB107029
:103B30000011A6EB00120120904081B25A48FEF716
:103B400052F8012007F028FD21784E1EF11706EBF0
:103B50001171C1F3071000F047FD0746394653487D
:103B6000FEF743F8012007F017FD21784E1EF117EC
:103B700006EB1171C1F3071000F036FD0746394618
:103B80004A48FEF732F8012007F006FD01202071B7
:103B900016E014E020790B2804D1082020710AF0E7
:103BA0005AF901E0092020710AE00B202071FCF78E
:103BB0008EFF0120E0700020A07001E002E000BF55
:103BC00000BF57E02079012802D00B284ED104E035
:103BD000082020710AF03FF949E0A078012841DD72
:103BE0000020A070E078461EF01706EB1070001160
:103BF000A6EB001201209040C04381B22A48FDF795
:103C0000F6FF012007F0C8FCE1784E1EF11706EB25
:103C10001171C1F3071000F0E7FC0746394623484D
:103C2000FDF7E3FF012007F0B7FCE1784E1EF11726
:103C300006EB1171C1F3071000F0D6FC07463946B8
:103C40001A48FDF7D0FF012007F0A6FCE0783028E5
:103C500003DAE078401CE07007E00AF0FCF8082086
:103C6000207102E0A078401CA07000E000BF00BFFF
:103C7000BDE8F081FEF7EAFA2079012802D00B288E
:103C800008D103E00AA00AF0F9F804E00BA00AF05A
:103C9000F5F800E000BF00BF207800F017F800BF83
:103CA000E6E7000008AD00200014014000100140CC
:103CB000B8FCB8C4B3C9B9A600000000D7D4B6AFE9
:103CC000B2E2CAD4BFAACABC0000000070B5044664
:103CD000FEF73CFE8C211020FFF7F8FAB020FFF72A
:103CE0005BFD0A2094FBF0F008490D5C2846FFF7C5
:103CF00089FD0A2094FBF0F100FB114003490D5CA3
:103D00002846FFF77FFDFFF723F970BDB258010881
:103D100010B50C210120FCF713FB09494862084645
:103D2000446A5CB1012020700020E0706070207156
:103D3000C4F80500A4F8090000F058F810BD000010
:103D400008AD002010B51348446AFEF712FB272384
:103D50000022EF211046FFF7A1FA0FA25021022006
:103D6000FFF7A4FD12A264210220FFF79FFD13A21A
:103D700078210220FFF79AFD16A28C210220FFF77E
:103D800095FD2078FFF7A2FFFCF7A1FE0120164960
:103D9000087010BD08AD0020C9E8D6C3D2AABCEC9B
:103DA000B2E2B5C4BDBBCDA8B5C6D0F2BAC500005D
:103DB00028312D3438BAC529000000001B1A3AD02A
:103DC000F2BAC5A1C031302018193AD0F2BAC5A153
:103DD000C0310000B5B1C7B0B2E2CAD4D0F2BAC5A2
:103DE000A1BE2020A1BF00004001002070B5054603
:103DF0003248446A20790C285CD2DFE800F0061AC9
:103E00005B5B5B5B0E151C200D1BE07A611D01F0F6
:103E1000C7F90620207170BD00BF631D9A1D211DCA
:103E2000284601F01FFA46E0FFF78CFF08202071BA
:103E3000F1E700BF00BF2846FFF730FE3BE01F4818
:103E400000691E490862204608F0ECFF00201B496B
:103E50004862FEF7A8FA1949886980471749C86976
:103E600080470020164908701649087016490870E6
:103E700004F0E6FF05F026F814480078C0EB0010C7
:103E8000C0EBC002124800EB4201D2221148FCF7FD
:103E90001FFA1048401C0A490978405C0E49087016
:103EA000074801780948007800F0B0F900200B4974
:103EB0000870B0E700BF00BF00BFACE708AD00204E
:103EC000450100203C0100203D010020460100206A
:103ED000DA9A002036A8002044010020400100208A
:103EE00070B586B03F48007806280CDD002407E056
:103EF0003D4830F8140003A921F81400601CC4B236
:103F0000062CF5DB38E037480078062818DC354801
:103F10000078032814DB00240FE0344830F8140044
:103F2000334931F8141008402F4931F81410084370
:103F300003A921F81400601CC4B2062CEDDB1BE0C1
:103F400028480078032817DA002413E0274830F8BF
:103F50001400284931F814104840254931F814104C
:103F60000840214931F81410084303A921F814002E
:103F7000601CC4B2062CE9DB1F484089C043BDF871
:103F800016104840C04380B21B490989C943BDF897
:103F900014205140C94389B2174DCDE90010ED8876
:103FA000ED43BDF812607540ED43ABB2124DAD88E4
:103FB000ED43BDF810607540ED43AAB20E4D6D881B
:103FC000ED43BDF80E607540ED43A9B20A4D2D8852
:103FD000ED43BDF80C607540ED43A8B2FCF794FDCD
:103FE00006B070BD440100201EA80020FAA70020E2
:103FF0002AA8002012A8002006A800207CB50025D1
:1040000033E00A242DE0784800EB0510005D30B362
:10401000754A02EB0512125D501EC21700EB1272B8
:104020001211724B33F812206F4B03EB05131B5D1B
:10403000591ECB1701EB13731B11A1EB03160123C0
:10404000B3401A4393B2684A02EB0512125D501E48
:10405000C21700EB12721211644E26F81230601C67
:10406000C4B2102CCFDB681CC5B2062DC9DB5F487B
:1040700040895E4909895D4ECDE90010F388B28818
:1040800071883088FCF740FD052059490870FDF71C
:10409000B1FD03F0F9FA0BE056480078012807D18A
:1040A00053480078401E524908700020514908705A
:1040B0004F4800780028EFD1002405E000204B494C
:1040C00021F81400601CC4B2062CF7DB002533E095
:1040D00006242DE0444800EB0510005D30B3424A51
:1040E00002EB0512125D501EC21700EB1272121184
:1040F0003E4B33F812203C4B03EB05131B5D591E5E
:10410000CB1701EB13731B11A1EB03160123B34073
:104110001A4393B2344A02EB0512125D501EC217C5
:1041200000EB12721211314E26F81230601CC4B22C
:104130000A2CCFDB681CC5B2062DC9DB05202C4933
:10414000087021E02B48007801280FD10020294970
:1041500008702648408925490989244ECDE9001078
:10416000F388B28871883088FCF7CEFC224800784A
:10417000012809D11E480078401E1D490870002002
:104180001D490870FCF7A3FC194800780028D9D114
:104190000021012003F01EFB04F052FE04F092FE09
:1041A00016480078C0EB0010C0EBC0020E48893002
:1041B00000EB4201D2221248FCF78AF81048401C5A
:1041C00010490978405C0A49087001200E490870BE
:1041D0000C4801780948007800F018F801210846D9
:1041E00003F0F8FA7CBD0000519A0020FAA70020E5
:1041F00044010020380100203A010020460100203F
:1042000036A80020450100203E010020F0B50546FB
:104210000A4600200EE00023C94C24F81030C94C97
:1042200024F81030C84C24F81030C84C24F8103052
:10423000431CD8B20628EEDB002185E000207EE09A
:10424000C34B03EB01131B5C002B76D0C04E06EB77
:104250000116365C741EE61704EB16763611B84F5D
:1042600037F81670BB4E06EB411636F812604FF069
:10427000010C0CFA00FC06EA0C060EB900260DE053
:10428000B34E06EB0116365C731EDE1703EB167693
:104290003611A3EB061C012606FA0CF63743AC4E8A
:1042A00006EB0116365C741EE61704EB1676361123
:1042B000DFF88CC22CF81670A54B03EB0114831D9C
:1042C000E35CD3B3A24E06EB0117861DBE5D741EE0
:1042D000E61704EB16763611674637F816709D4ED2
:1042E00006EB411636F812604FF0010C0CFA00FC98
:1042F00006EA0C060EB900260FE0954E06EB011CEF
:10430000861D1CF80660731EDE1703EB1676361149
:10431000A3EB061C012606FA0CF637438C4E06EB7F
:10432000011C861D1CF80660741EE61704EB167649
:104330003611DFF80CC22CF81670431CD8B20428D2
:10434000FFF67EAF4B1CD9B20629FFF677AF0021EE
:10435000F2E00020EBE07E4B03EB01131B5C002B33
:104360007ED07B4E06EB0116365C741EE61704EB1E
:1043700016763611734F37F81670764E06EB4116E7
:1043800036F812C0012686400CEA060CBCF1000F7C
:1043900001D100260DE06E4E06EB0116365C731E51
:1043A000DE1703EB16763611A3EB061C012606FA80
:1043B0000CF63743664E06EB0116365C741EE617A4
:1043C00004EB16763611DFF87CC12CF81670604EBF
:1043D00006EB0116365C741EE61704EB16763611F2
:1043E0005A4F37F8167001EB410C594E613636F8CA
:1043F0001C604FF0010C0CFA00FC06EA0C060EB92A
:1044000000260DE0524E06EB0116365C731EDE17D9
:1044100003EB16763611A3EB061C012606FA0CF602
:1044200037434B4E06EB0116365C741EE61704EB61
:1044300016763611DFF814C12CF81670464B1B782F
:10444000D3BB434E06EB0116365C741EE61704EB35
:10445000167636113C4F37F8167001EB410C00E030
:1044600063E03B4E613606EB4C0676884FF0010C5C
:104470000CFA00FC06EA0C060EB900260DE0344EDC
:1044800006EB0116365C731EDE1703EB167636114B
:10449000A3EB061C012606FA0CF637432C4E06EB5E
:1044A0000116365C741EE61704EB16763611DFF83B
:1044B00098C02CF8167038E0FFE7254E06EB011681
:1044C000365C731EDE1703EB167636111E4F37F877
:1044D000167001EB410C1E4E613606EB4C06B68899
:1044E0004FF0010C0CFA00FC06EA0C060EB900268F
:1044F0000DE0174E06EB0116365C741EE61704EB52
:1045000016763611A4EB061C012606FA0CF6374384
:104510000F4E06EB0116365C731EDE1703EB1676A4
:104520003611DFF824C02CF81670431CD8B21028BE
:10453000FFF611AF4B1CD9B20629FFF60AAFF0BD4A
:1045400012A80020FAA700201EA800202AA80020F8
:10455000519A002048A800203B0100207CB51D484E
:104560000078032810DB00240BE01B4830F814000F
:104570001A4931F814100843194921F81400601C35
:10458000C4B2062CF1DB17E012480078032813DAD6
:1045900000240FE0134830F814000F4931F81410CC
:1045A00048400E4931F8141008430D4921F8140011
:1045B000601CC4B2062CEDDB094840890849098912
:1045C000074DCDE90010EB88AA8869882888FCF798
:1045D0009BFA7CBD44010020FAA700201EA8002001
:1045E00006A8002012A800200146062910D2DFE804
:1045F00001F0030507090B0D202070474020FCE760
:104600008020FAE70420F8E70820F6E71020F4E716
:104610000020F2E700B587B009F0E2FE0AF0BAF830
:104620000E4806906FF07F4005900D4804900D48AD
:104630000D49002204ABCDE90021029005AA06A98C
:104640000A480AF0DDF909480AF028FA07480AF092
:1046500073FA07A004F0AAFD07B000BDC0A801705E
:10466000C0A801011DCB000809CC000844CD0020E2
:104670004C77495020496E697420537563636564B3
:10468000640A00006AA06D490860022008723D209B
:1046900048726BA048607148C8600020486108619A
:1046A0006FA0C8610221654880F82410522180F86B
:1046B00025106E4981626EA1016200210163C16211
:1046C00072A05E49886302215C4880F8401067212F
:1046D00080F841107049416470A1C1630021C16438
:1046E000816475A0554948650221544880F85C10E2
:1046F0007C2180F85D107349016673A181650021FA
:104700008166416677A04D49086702214B4880F8D1
:104710007810912180F879107549C16775A14167BA
:104720000021C0F88410C0F880107CA04349C1F873
:104730008C000221414880F89410A62180F8951041
:1047400079A1C0F890100021C0F89810C0F8A0100E
:10475000C0F89C107DA03949C1F8A8001521374840
:1047600080F8B0103D2180F8B1107BA1C0F8AC10EA
:104770008049C0F8B4100021C0F8BC10C0F8B810CF
:104780007DA02E49C1F8C40015212C4880F8CC101A
:10479000522180F8CD107CA1C0F8C8100021C0F8CB
:1047A000D010C0F8D810C0F8D4107FA02349C1F8A9
:1047B000E0001521214880F8E810672180F8E91011
:1047C0007DA1C0F8E4100021C0F8EC10C0F8F4108E
:1047D000C0F8F0107EA01949C1F8FC001521174857
:1047E00080F804117C2180F8051167A1C0F8001140
:1047F0000021C0F80811C0F81011C0F80C110A20EF
:10480000774908700020487076A048600B48C8605F
:104810000020886074480861744848617448886161
:104820007448C86108460069086200204862704701
:10483000B5C6CEBBB5C6C9AB0000000040A900207C
:10484000B8FCB8C44750494FD2FDBDC5D3EBB5C67F
:10485000C9ABB9D8C1AAB9D8CFB500002CAC0020DB
:10486000C9C1CBB8C9E8D6C30000000050AB0020D6
:10487000C9E8D6C3B3A3C9C1B5C6C9ABBACDD4CAFA
:10488000D0EDC9C1CBB8B5C6C9AB0000CAB1B6CE70
:10489000C9E8D6C300000000D4AA0020CCEDBCD3E8
:1048A000C9BEB3FDCAB1B6CEBBF2B8FCB8C4CAB17A
:1048B000B6CEB2CECAFD0000CFE0CEBBC9E8D6C3AB
:1048C0000000000058AA0020CCEDBCD3C9BEB3FD47
:1048D000CFE0CEBBBBF2B8FCB8C4CFE0CEBBB2CE0B
:1048E000CAFD0000CAB1BCE4C9E8D6C3000000009C
:1048F000CCAB0020B8FCB8C4B5B1C7B0CAB1BCE4F9
:10490000A1A2B8FCB8C4D6E7D2B9CAB1BCE4BACD4A
:10491000D0DDC3DFCAB1BCE400000000B7BDB0B851
:10492000D1A1D4F100000000BFC9D1A13136B8F641
:10493000D2D1D6AAB7BDB0B8BACD34B8F6D7D4B6AE
:10494000A8D2E5D0DEB8C4B7BDB0B800CAD6B6AFFD
:10495000C4A3CABD00000000CAD6B6AFB5F7CAD41A
:10496000C4A3CABDA3ACD6BBD4DAB2E2CAD4D3C303
:104970000000000008AD0020CCD8CAE2B9A4D7F7E7
:10498000C4A3CABD00000000BDABD0DEB8C4B7BD33
:10499000B0B8B4E6D6C1D7D4B6A8D2E5D0DEB8C494
:1049A000B7BDB0B800000000BDF8C8EBD0DDC3DF74
:1049B000C4A3CABD00000000CAB9D0C5BAC5BBFABD
:1049C000BDF8C8EBD0DDC3DFD7B4CCAC000000002D
:1049D000B1A3B4E6C9E8D6C3B5BD50524F4D0000EF
:1049E00018A9002020000000D9E80008C9B5000877
:1049F0005DB7000851B6000825A0294908600220CB
:104A000008725020487227A048600020C8602B48D8
:104A100048612B4888612BA0C8610221204880F89A
:104A20002410642180F825102AA1016200218162EE
:104A30002F4901632F4941632FA01949886302213F
:104A4000174880F84010782180F841102DA1C163EB
:104A5000002141643149C164314901650320314974
:104A600008700020487030A048600D48C860314888
:104A7000886031480861314848613148886131486F
:104A8000C86108460069086200204862704700005B
:104A9000CFE0CEBBCAB1BCE4D1D3B3A400000000C8
:104AA00030AD0020CAD6B6AFB5F7D0A3B5B1C7B008
:104AB000CFE0CEBBCAB1BCE400000000C14C00088E
:104AC000154C0008D4CBD0D0CBF8B6A8CFE0CEBBE5
:104AD00000000000CAD6B6AFD6B8B6A8B5B1C7B008
:104AE000D1ADBBB7D4CBD0D0B5C4CFE0CEBB0000E6
:104AF0004D500008514F0008BDBBCDA8B5C6BCEC59
:104B0000B2E20000B5E3C1C1D6B8B6A8D0F2BAC5CA
:104B1000B5C4BDBBCDA8B5C600000000ED3D000882
:104B2000113D000808AD0020CAD6B6AFC4A3CABD67
:104B30000000000018A9002071E90008FDB5000878
:104B40005DB70008C9B6000870B504462F48456A2D
:104B5000092C3DD2DFE804F03B1D2C051337381E2D
:104B60002D002B4800785A2808DA294800780628B2
:104B700004DD274800780A302549087029E02448D8
:104B80000078102804DD224800780A38204908708F
:104B90001FE000BF1E480078632808DA1C48007830
:104BA000062804DD1A480078401C1949087010E0F6
:104BB00000BF17480078072804DD15480078401E1C
:104BC0001349087005E004E00920287001E070BD79
:104BD00000BF00BFFDF73AFB2878092812D10B4827
:104BE00000690A490862284608F01CF900200749B4
:104BF0004862FDF7D8FB0549886980470349C869C1
:104C0000804700E000BF00BF00BFE0E708AD002024
:104C10004401002070B509210120FBF791FB0B49ED
:104C200048620846446A6CB100206070207000251C
:104C300004E00021A01C4155681CC5B2062DF8DB1C
:104C400000212172002000F03BF870BD08AD00206B
:104C500010B5FDF78EFB27230022EF211046FEF74B
:104C60001DFB08A250210220FEF720FE0CA26421A9
:104C70000220FEF71BFE0EA278210220FEF716FE90
:104C800010BD0000B5F7D5FBB5B1C7B0CFE0CEBBC6
:104C9000CAB1BCE428362D3939C3EB290000000025
:104CA00018193ABCD3BCF5CAB1BCE431C3EB00005F
:104CB0001B1A3ABCD3BCF5CAB1BCE43130C3EB001B
:104CC00070B505461D48446A20790B2832D2DFE8CA
:104CD00000F00631313131310E151A1E0D00E07A27
:104CE000611D00F05DFA0620207170BD00BF631DDC
:104CF0009A1D211D284600F0B5FA1CE0FFF7A8FF19
:104D000008202071F1E72846FFF71EFF13E00B484B
:104D100000690A490862204608F084F80020074923
:104D20004862FDF740FB0549886980470349C86927
:104D30008047DAE700BF00BF00BFD6E708AD00201C
:104D400070B505464C48446A072D78D2DFE805F077
:104D5000761436040C4B7300607810B90120607033
:104D600001E0002060706BE0607810B90120607095
:104D700001E00020607063E0607858B9617A3F48D4
:104D80000078401E814205DA607A401C6072002083
:104D9000A07212E0607801280FD1A17A607AC0EB8E
:104DA0000010C0EBC0023548BA3010F81200401EA7
:104DB000814202DAA07A401CA07241E0607840B9DA
:104DC000607A002805DD607A401E60720020A072C3
:104DD00008E06078012805D1A07A002802DDA07AD9
:104DE000401EA0722CE0607A25490870A07A2549FF
:104DF00008700021012002F0EDFC224801782048D3
:104E00000078FFF703FA1E480078C0EB0010C0EBF3
:104E1000C0011A48BA3000EB4100401C194909781A
:104E2000405C194908700121084602F0D3FC0C20AF
:104E3000207005E003E00920207001E002E000BFDF
:104E400000BF07E020780C2803D10820207009F06B
:104E500002F870BDFDF7FAF920780C2803D10BA0F9
:104E600009F00CF800BF00BFA27A617A607800F008
:104E700013F800BFEDE7000008AD0020209A0020E5
:104E8000460100204501002044010020C9E8D6C3A6
:104E9000B3C9B9A6000000002DE9F04105460E4651
:104EA000174600244CE0AC4201D1FDF74FFD264AE5
:104EB00002EB44025178244A12F81400FEF706FA75
:104EC00014B1012C34D119E0B020FEF765FC701C40
:104ED0000A2190FBF1F01D4911F800804046FEF7D1
:104EE00091FC701C0A2190FBF1F201FB12001749A2
:104EF00011F800804046FEF785FC1AE0B020FEF76E
:104F00004BFC781C0A2190FBF1F0104911F800804D
:104F10004046FEF777FC781C0A2190FBF1F201FB7A
:104F200012000A4911F800804046FEF76BFC00E0D1
:104F300000BF00BFAC4201D1FEF70AF8601CC4B24A
:104F4000022CB0DBBDE8F081BC580108B258010862
:104F500070B50B210120FBF7F3F90B4948620846B5
:104F6000446A6CB10020207060700021217200251D
:104F700004E00021A01C4155681CC5B2062DF8DBD9
:104F8000002000F063F870BD08AD002010B519488E
:104F9000446AFDF7EEF927230022EF211046FEF7C1
:104FA0007DF915A250210220FEF780FC19A2642190
:104FB0000220FEF77BFC1BA278210220FEF776FC84
:104FC0001EA28A210C20FEF771FCA27A617A607819
:104FD000FFF762FF0021012002F0FCFB01201A49CB
:104FE000087000210846FFF711F90121084602F078
:104FF000F1FB10BD08AD0020C9E8D6C3B2A2CBF8C2
:10500000B6A8D4CBD0D0CAB1B6CEBCB0CFE0CEBB60
:10501000000000001B1A3AD2C6B6AF2018193ABCDD
:10502000D3BCF500B5B1C7B0D1A1D4F13A20CAB113
:10503000B6CEA1BE2020A1BF00000000CFE0CEBBB5
:10504000A1BE2020A1BF00003F01002070B5054691
:105050003248446A20780D285CD2DFE800F0075B14
:105060005B5B5B5B0F161C200E5B1B006078A11C5A
:1050700000F096F80620207070BD00BFA31C621CD3
:105080002146284600F0EEF845E0FFF77FFF0820B4
:105090002070F1E700BF2846FFF752FE3BE01F48B3
:1050A00000691E490862204607F0BCFE00201B492B
:1050B0004862FDF778F91949886980471749C86936
:1050C0008047002016490870164908701649087074
:1050D00003F0B6FE03F0F6FE14480078C0EB0010B3
:1050E000C0EBC002124800EB4201D2221148FBF78C
:1050F000EFF81048401C0A490978405C0E490870D6
:105100000748017809480078FFF780F800200B492C
:105110000870B1E700BF00BF00BFADE708AD0020D9
:10512000450100203C0100203D01002046010020F7
:10513000DA9A002036A80020440100203F01002018
:1051400000BFFEE72DE9F04105460E466E210B201B
:10515000FEF7BCF800241CE0AC4212D1FDF7F6FBD0
:10516000B020FEF719FB305D0A2190FBF1F201FB44
:1051700012000A490F5C3846FEF744FBFDF7E8FED3
:1051800005E0B020FEF708FB2A20FEF73BFB601C81
:10519000C4B2062CE0DBBDE8F0810000B258010883
:1051A0002DE9F04105460E46FDF7E3F826231D22C2
:1051B000AA216020FEF772F8FDF7B0F8272300223D
:1051C000EF211046FEF76AF815A250210220FEF7E3
:1051D0006DFB6E210B20FEF779F800241CE0AC4239
:1051E00012D1FDF7B3FBB020FEF7D6FA305D0A21ED
:1051F00090FBF1F201FB120010490F5C3846FEF7FC
:1052000001FBFDF7A5FE05E0B020FEF7C5FA2A2058
:10521000FEF7F8FA601CC4B2062CE0DBBDE8F081B2
:10522000C7EBCAE4C8EBC1F9CEBBC3DCC2EB3A287A
:10523000B3F5CABCCEAA302900000000B25801085C
:1052400000B5FFF7D9FB02F097F903F069FDFEF70F
:1052500077FBFCF77BFA01F01FFF01F081FEFFF7FF
:1052600011FA00BD2DE9F04107460E4614461D46D1
:10527000072F4AD2DFE807F0481721040D2B45001D
:10528000207810B90520207002E02078401E2070A0
:105290003CE02078052802D10020207002E0207830
:1052A000401C207032E02078285C092804DA20783D
:1052B000285C401C2178685428E02078285C00286D
:1052C00004DD2078285C401E217868541EE0287890
:1052D000012813D16878012810D1A87801280DD1B0
:1052E000E87801280AD12879012807D168790128AE
:1052F00004D1072030700020207001E00A203070B7
:1053000004E00920307001E002E000BF00BF17E0B8
:1053100030780A2812D1062030700120FCF7B8FF3F
:1053200026231D22AA214C20FDF7B8FFFCF7F6FF2B
:1053300027230022EF211046FDF7B0FFBDE8F081E2
:10534000FCF784FF30780A2803D106A008F096FD08
:1053500000E000BF00BF20782946FFF7F3FE00BF42
:10536000ECE70000C3DCC2EBB4EDCEF300000000BC
:10537000704708B54FF4A06000F076F800214FF0B8
:10538000006000F07BF806208DF8000001208DF809
:1053900001008DF802008DF80300684600F02CF83B
:1053A0001C208DF8000000208DF801008DF802000F
:1053B00001208DF80300684600F01EF836208DF8B5
:1053C000000001208DF8010000208DF8020001206E
:1053D0008DF80300684600F00FF803208DF80000F8
:1053E00000208DF801008DF8020001208DF80300E7
:1053F000684600F001F808BD70B5002100230F22B7
:10540000C47804B3154C246804F4E064C4F5E06483
:10541000210AC1F10403CA40447804FA03F18478F4
:105420001440214309010E4C0678A155047804F07C
:105430001F050124AC4005786D11AD0005F1E02594
:10544000C5F8004109E0047804F01F050124AC40D0
:10545000044D0678761145F8264070BD0CED00E04D
:1054600000E400E080E100E002490143024A1160EB
:10547000704700000000FA050CED00E0024A0A4007
:105480000243024B1A60704780FFFF1F08ED00E0E7
:105490001D481E481E481F481F48204820482148D4
:1054A00021482248224823482348244824482548A4
:1054B0002548264826482748274828482848294874
:1054C00029482A482A482B482B482C482C482D4844
:1054D0002D482E482E482F482F4830483048314814
:1054E00031483248324833483348344834483548E4
:1054F00035483648364837483748384838483948B4
:10550000394800BF704700000058010804580108DE
:105510000A5801080C580108085801080E580108DB
:1055200010580108125801081458010816580108AB
:10553000185801081A5801081C5801081E5801087B
:10554000205801082258010824580108265801084B
:10555000285801082A5801082C5801082E5801081B
:1055600030580108325801083458010836580108EB
:10557000385801083A5801083C5801083E580108BB
:10558000405801084258010844580108465801088B
:10559000485801084A5801084C5801084E5801085B
:1055A000505801085258010854580108565801082B
:1055B000585801085A580108BC800020FC8500207A
:1055C0005E580108605801086258010864580108D3
:1055D00066580108685801086A5801086C580108A3
:1055E0006E5801085C5801087058010810B500F0A9
:1055F00019F801F00BFA01F033FA01F055FA01F055
:10560000E5F901F0ABF901F0DDFA01F001FB01F081
:105610007FFA01F0A5FA00F09BFF00F01BF8FFF7FE
:1056200037FF10BD0748802102E0491E002204C058
:105630000029FAD1044A054B1A600022044B1A8053
:10564000704700003C860020388800201C010020A4
:10565000200100207047000006480078012808D18A
:1056600005480078FF2804D203480078401C02490E
:1056700008707047E2000020D500002010B500241B
:105680001A480078012830D1FAF779FD0446184805
:105690000078002804DD16480078401E1449087080
:1056A00013480078F0B913480078D8B901F006FB28
:1056B0001148007811490978884213D010480E49E2
:1056C000097850F821000F49086008460068806B8F
:1056D000401C096888630C480068401C0A4908603F
:1056E000FAF76DFD2046FAF74EFD10BDE2000020EE
:1056F000D5000020D6000020D8000020D7000020D0
:105700006C7B0020F0000020BC00002070B5054636
:10571000002610480078002801DD002070BDFAF74F
:105720002EFD06460C480468006820B10A4800684F
:105730004068094908603046FAF725FD3CB1012070
:105740002070002020816560204601F0F9F8204695
:10575000E4E70000D5000020C00000202DE9F04162
:1057600005460F4614464FF0000814B90020BDE866
:10577000F0811DB9042020700020F8E72878012866
:1057800003D0012020700020F1E73848007800287D
:1057900003DD022020700020E9E73548007800286A
:1057A00003DD0D2020700020E1E7FAF7E8FC8046D9
:1057B0006E6846B1002068604046FAF7E4FC0020BD
:1057C00020703046D3E72B48006890F8300040F056
:1057D00002002849096881F830000020254909683D
:1057E00081F8310023480068C785284601F06AF82F
:1057F0004046FAF7C8FC01F027FAFAF7C0FC8046E9
:105800001C48006890F8310020B101280DD0022812
:105810000AD105E017480068466A002020700DE0B4
:1058200000260E20207009E000BF294611480068BC
:1058300001F016F800260A20207000BF00BF0020EB
:105840000C49096881F830000A49096881F831007B
:1058500008490968C8610749096808620549096873
:1058600048624046FAF78FFC304680E7D5000020BA
:10587000D6000020E800002070B504460D46002642
:105880000CB9042070BD0DB90320FBE72078012876
:1058900001D00120F6E7FAF772FC0646A07A60B163
:1058A000002302222946204600F092FF3046FAF7F4
:1058B0006AFC01F0C9F90020E4E7606820B13046D5
:1058C000FAF761FC1420DDE765603046FAF75BFC0F
:1058D0000020D7E72DE9F04106460F464FF00008BB
:1058E00020480078002802DD0020BDE8F081FAF7AA
:1058F00046FC80461C480568006820B11A480068CC
:105900004068194908604046FAF73DFC3DB3FAF794
:1059100036FC804615480468C4B100680068134925
:1059200008604046FAF72FFC666006EB8700A0602F
:10593000E6602661A7820020E08202202870002015
:1059400028816C60284600F0FBFF08E006480068EC
:105950006860054805604046FAF715FC00252846B2
:10596000C3E70000D5000020C00000200001002097
:105970002DE9F0470646884615464FF0000915B94F
:105980000020BDE8F0871EB9042028700020F8E749
:105990003078022803D0012028700020F1E73F482A
:1059A0000078002803DD022028700020E9E73C4849
:1059B0000078002803DD0D2028700020E1E7FAF7C9
:1059C000DEFB81467468E08A002813DD2169081D2A
:1059D00020610F68E08A401EE082A1682069884249
:1059E00001D1606820614846FAF7CDFB002028709D
:1059F0003846C6E72B48006890F8300040F00400B5
:105A00002849096881F8300000202649096881F892
:105A1000310024480068A0F82E80304600F052FF84
:105A20004846FAF7B0FB01F00FF9FAF7A8FB8146F8
:105A30001C48006890F8310020B101280DD00228E0
:105A40000AD105E017480068476A002028700DE079
:105A500000270E20287009E000BF31461148006879
:105A600000F0FEFE00270A20287000BF00BF0020C3
:105A70000C49096881F830000A49096881F8310049
:105A800008490968C8610749096808620549096841
:105A900048624846FAF777FB384672E7D50000209F
:105AA000D6000020E80000202DE9F04105460E4612
:105AB000002715B90420BDE8F0812878022801D01C
:105AC0000120F8E7FAF75BFB0746A87A60B10023EC
:105AD00004223146284600F07BFE3846FAF753FB95
